{
  "contractName": "ReactExample",
  "abi": [
    {
      "constant": true,
      "inputs": [],
      "name": "pseudoRandomResult",
      "outputs": [
        {
          "name": "",
          "type": "bool"
        }
      ],
      "payable": false,
      "stateMutability": "view",
      "type": "function"
    },
    {
      "inputs": [],
      "payable": false,
      "stateMutability": "nonpayable",
      "type": "constructor"
    },
    {
      "payable": true,
      "stateMutability": "payable",
      "type": "fallback"
    },
    {
      "anonymous": false,
      "inputs": [
        {
          "indexed": false,
          "name": "result",
          "type": "bool"
        }
      ],
      "name": "ExperimentComplete",
      "type": "event"
    },
    {
      "constant": true,
      "inputs": [],
      "name": "getSecret",
      "outputs": [
        {
          "name": "",
          "type": "string"
        }
      ],
      "payable": false,
      "stateMutability": "view",
      "type": "function"
    },
    {
      "constant": true,
      "inputs": [],
      "name": "getState",
      "outputs": [
        {
          "name": "",
          "type": "string"
        }
      ],
      "payable": false,
      "stateMutability": "view",
      "type": "function"
    },
    {
      "constant": false,
      "inputs": [
        {
          "name": "newState",
          "type": "string"
        }
      ],
      "name": "setState",
      "outputs": [],
      "payable": true,
      "stateMutability": "payable",
      "type": "function"
    },
    {
      "constant": false,
      "inputs": [],
      "name": "setExperimentInMotion",
      "outputs": [
        {
          "name": "",
          "type": "bool"
        }
      ],
      "payable": true,
      "stateMutability": "payable",
      "type": "function"
    },
    {
      "constant": false,
      "inputs": [],
      "name": "kill",
      "outputs": [],
      "payable": false,
      "stateMutability": "nonpayable",
      "type": "function"
    }
  ],
  "bytecode": "0x608060405234801561001057600080fd5b50336000806101000a81548173ffffffffffffffffffffffffffffffffffffffff021916908373ffffffffffffffffffffffffffffffffffffffff1602179055506040805190810160405280600b81526020017f73656372657420646174610000000000000000000000000000000000000000008152506001908051906020019061009c9291906100ee565b506040805190810160405280600d81526020017f496e697469616c20737461746500000000000000000000000000000000000000815250600290805190602001906100e89291906100ee565b50610193565b828054600181600116156101000203166002900490600052602060002090601f016020900481019282601f1061012f57805160ff191683800117855561015d565b8280016001018555821561015d579182015b8281111561015c578251825591602001919060010190610141565b5b50905061016a919061016e565b5090565b61019091905b8082111561018c576000816000905550600101610174565b5090565b90565b610644806101a26000396000f300608060405260043610610078576000357c0100000000000000000000000000000000000000000000000000000000900463ffffffff168063170946c71461007d5780631865c57d1461009f57806341c0e1b51461012f57806349fad5dd146101465780635b9fdc301461017557806368794b8714610205575b600080fd5b610085610261565b604051808215151515815260200191505060405180910390f35b3480156100ab57600080fd5b506100b461036d565b6040518080602001828103825283818151815260200191508051906020019080838360005b838110156100f45780820151818401526020810190506100d9565b50505050905090810190601f1680156101215780820380516001836020036101000a031916815260200191505b509250505060405180910390f35b34801561013b57600080fd5b5061014461040f565b005b34801561015257600080fd5b5061015b6104a4565b604051808215151515815260200191505060405180910390f35b34801561018157600080fd5b5061018a6104b7565b6040518080602001828103825283818151815260200191508051906020019080838360005b838110156101ca5780820151818401526020810190506101af565b50505050905090810190601f1680156101f75780820380516001836020036101000a031916815260200191505b509250505060405180910390f35b61025f600480360381019080803590602001908201803590602001908080601f0160208091040260200160405190810160405280939291908181526020018383808284378201915050505050509192919290505050610559565b005b6000803334600036604051808573ffffffffffffffffffffffffffffffffffffffff1673ffffffffffffffffffffffffffffffffffffffff166c01000000000000000000000000028152601401848152602001838380828437820191505094505050505060405180910390209050600a6001026000191681600019161115610303576001600360006101000a81548160ff02191690831515021790555061031f565b6000600360006101000a81548160ff0219169083151502179055505b7febfaed7fb7b0aa2190100184364eeaa3c730502de5f7702e86e6644f5a06e7f0600360009054906101000a900460ff16604051808215151515815260200191505060405180910390a15090565b606060028054600181600116156101000203166002900480601f0160208091040260200160405190810160405280929190818152602001828054600181600116156101000203166002900480156104055780601f106103da57610100808354040283529160200191610405565b820191906000526020600020905b8154815290600101906020018083116103e857829003601f168201915b5050505050905090565b6000809054906101000a900473ffffffffffffffffffffffffffffffffffffffff1673ffffffffffffffffffffffffffffffffffffffff163373ffffffffffffffffffffffffffffffffffffffff1614151561046a57600080fd5b6000809054906101000a900473ffffffffffffffffffffffffffffffffffffffff1673ffffffffffffffffffffffffffffffffffffffff16ff5b600360009054906101000a900460ff1681565b606060018054600181600116156101000203166002900480601f01602080910402602001604051908101604052809291908181526020018280546001816001161561010002031660029004801561054f5780601f106105245761010080835404028352916020019161054f565b820191906000526020600020905b81548152906001019060200180831161053257829003601f168201915b5050505050905090565b806002908051906020019061056f929190610573565b5050565b828054600181600116156101000203166002900490600052602060002090601f016020900481019282601f106105b457805160ff19168380011785556105e2565b828001600101855582156105e2579182015b828111156105e15782518255916020019190600101906105c6565b5b5090506105ef91906105f3565b5090565b61061591905b808211156106115760008160009055506001016105f9565b5090565b905600a165627a7a72305820f55eac6bd74d614fd5912aa1ddae316d5478a8d0d6ccad39ab5bae38fcaf85770029",
  "source": "pragma solidity ^0.4.13;\r\n\r\ncontract ReactExample {\r\n\r\n    address private owner;\r\n    string private secret;\r\n    string private state;\r\n    bool public pseudoRandomResult;\r\n\r\n    event ExperimentComplete (bool result);\r\n\r\n    constructor() public {\r\n\t\towner = msg.sender;  \r\n        secret = \"secret data\"; \r\n        state = \"Initial state\";\r\n    }\r\n\r\n    function getSecret() public view returns (string) {\r\n        return secret;\r\n    }\r\n\r\n    function getState() public view returns (string) {\r\n        return state;\r\n    }\r\n\r\n    function setState(string newState) public payable {\r\n        state = newState;\r\n    }\r\n\r\n    function setExperimentInMotion() \r\n    public \r\n    payable\r\n    returns (bool) {\r\n        bytes32 _psuedoRes = keccak256(msg.sender, msg.value, msg.data);\r\n        if (_psuedoRes > bytes32(10)) pseudoRandomResult = true;\r\n        else pseudoRandomResult = false; \r\n\r\n        emit ExperimentComplete(pseudoRandomResult);\r\n    }\r\n\r\n    function kill() public {\r\n        require (msg.sender == owner);\r\n        selfdestruct (owner);\r\n    }\r\n\r\n    function () public payable {\r\n        revert();\r\n    }\r\n}",
  "sourcePath": "C:\\Users\\Rahul\\Desktop\\truffle_react2\\contracts\\ReactExample.sol",
  "compiler": {
    "name": "solc",
    "version": "0.4.24+commit.e67f0147.Emscripten.clang"
  },
  "schemaVersion": "2.0.0",
  "updatedAt": "2018-06-28T12:22:17.406Z"
}